:020000040804EE
:1000000000000000000000000000000000000000F0
:1000100000000000000000000000000000000000E0
:1000200000000000000000000000000000000000D0
:1000300000000000000000000000000000000000C0
:1000400000000000000000000000000000000000B0
:1000500000000000000000000000000000000000A0
:100060000000000000000000000000000000000090
:100070000000000000000000000000000000000080
:100080000000000000000000000000000000000070
:100090000000000000000000000000000000000060
:1000A0000000000000000000000000000000000050
:1000B0000000000000000000000000000000000040
:1000C0000000000000000000000000000000000030
:1000D0000000000000000000000000000000000020
:1000E0000000000000000000000000000000000010
:1000F0000000000000000000000000000000000000
:1001000000000000000000000000000000000000EF
:1001100000000000000000000000000000000000DF
:1001200000000000000000000000000000000000CF
:1001300000000000000000000000000000000000BF
:1001400000000000000000000000000000000000AF
:10015000000000000000000000000000000000009F
:10016000000000000000000000000000000000008F
:10017000000000000000000000000000000000007F
:10018000000000000000000000000000000000006F
:10019000000000000000000000000000000000005F
:1001A000000000000000000000000000000000004F
:1001B000000000000000000000000000000000003F
:1001C000000000000000000000000000000000002F
:1001D000000000000000000000000000000000001F
:1001E000000000000000000000000000000000000F
:1001F00000000000000000000000000000000000FF
:1002000080B30320D9890408F5750508AD89040871
:10021000AD890408AD890408AD8904080000000018
:10022000000000000000000000000000E58104085C
:10023000AD8904080000000051810408FDE30408B2
:1002400069830408698304086983040869830408CE
:1002500069830408698304086983040869830408BE
:1002600069830408698304086983040869830408AE
:10027000698304086983040869830408698304089E
:10028000698304086983040869830408698304088E
:10029000698304086983040869830408698304087E
:1002A000698304086983040869830408698304086E
:1002B000698304086983040869830408698304085E
:1002C000698304086983040869830408698304084E
:1002D000698304086983040869830408698304083E
:1002E000698304086983040869830408698304082E
:1002F000698304086983040869830408698304081E
:10030000698304086983040869830408698304080D
:1003100069830408698304086983040869830408FD
:1003200069830408698304086983040869830408ED
:1003300069830408698304086983040869830408DD
:1003400069830408698304086983040869830408CD
:1003500069830408698304086983040869830408BD
:1003600069830408698304086983040869830408AD
:10037000698304086983040869830408698304089D
:10038000698304086983040869830408698304088D
:10039000698304086983040869830408698304087D
:1003A000698304086983040869830408698304086D
:1003B000698304086983040869830408698304085D
:1003C000698304086983040869830408698304084D
:1003D000698304086983040869830408698304083D
:1003E000698304086983040869830408698304082D
:0803F000698304086983040815
:0803F800FFFFFFFFFFFFFFFF05
:1004000001F0FF01102A2BDB10F0070F08D010F8C5
:10041000013B013A8B422DD010F0070F42B3F6D1C9
:10042000F0B441EA012141EA014122F007047FF0E2
:1004300000070023F0E80256083C85EA010586EA39
:10044000010685FA47F5A3FA87F586FA47F6A5FA75
:1004500087F68EB9EED1F0BC01F0FF0102F0070281
:1004600032B110F8013B013A83EA010313B1F8D12C
:100470000020704701387047002D06BF354603380D
:10048000073815F0010F07D1013015F4807F02BF46
:10049000013015F4C03F0130F0BC0138704700BF97
:1004A0007BB972B90029BEBF00204FF0004106E0C1
:1004B00008BF00281CBF6FF000414FF0FF3000F074
:1004C000BFB9ADF1080C6DE904CE002909DB002BA2
:1004D0001ADB00F04DF8DDF804E0DDE9022304B09A
:1004E0007047404261EB4101002B1BDB00F040F8FC
:1004F000DDF804E0DDE9022304B0404261EB410194
:10050000524263EB43037047524263EB430300F0F4
:100510002FF8DDF804E0DDE9022304B0404261EB8E
:1005200041017047524263EB430300F021F8DDF8CC
:1005300004E0DDE9022304B0524263EB4303704759
:1005400053B94AB9002908BF00281CBF4FF0FF313A
:100550004FF0FF3000F074B9ADF1080C6DE904CE36
:1005600000F006F8DDF804E0DDE9022304B070478E
:100570002DE9F047089D04468E46002B4DD18A4256
:10058000944669D9B2FA82F252B101FA02F3C2F189
:10059000200120FA01F10CFA02FC41EA030E94401A
:1005A0004FEA1C48210CBEFBF8F61FFA8CF708FB3B
:1005B00016E341EA034306FB07F199420AD91CEB13
:1005C000030306F1FF3080F01F81994240F21C8145
:1005D000023E63445B1AA4B2B3FBF8F008FB10338D
:1005E00044EA034400FB07F7A7420AD91CEB0404C2
:1005F00000F1FF3380F00A81A74240F20781644492
:10060000023840EA0640E41B00261DB1D440002316
:10061000C5E900433146BDE8F0878B4209D9002D7A
:1006200000F0EF800026C5E9000130463146BDE804
:10063000F087B3FA83F6002E4AD18B4202D382426E
:1006400000F2F980841A61EB030301209E46002D1D
:10065000E0D0C5E9004EDDE702B9FFDEB2FA82F272
:10066000002A40F09280A1EB0C014FEA1C471FFAD0
:100670008CFE0126200CB1FBF7F307FB131140EAB7
:1006800001410EFB03F0884208D91CEB010103F184
:10069000FF3802D2884200F2CB804346091AA4B246
:1006A000B1FBF7F007FB101144EA01440EFB00FE1A
:1006B000A64508D91CEB040400F1FF3102D2A6457F
:1006C00000F2BB800846A4EB0E0440EA03409CE71E
:1006D000C6F12007B34022FA07FC4CEA030C20FACB
:1006E00007F401FA06F31C43F9404FEA1C4900FAEB
:1006F00006F3B1FBF9F8200C1FFA8CFE09FB181168
:1007000040EA014108FB0EF0884202FA06F20BD9DA
:100710001CEB010108F1FF3A80F08880884240F22A
:100720008580A8F102086144091AA4B2B1FBF9F06E
:1007300009FB101144EA014100FB0EFE8E4508D969
:100740001CEB010100F1FF346CD28E456AD90238EE
:10075000614440EA0840A0FB0294A1EB0E01A142D3
:10076000C846A64656D353D05DB1B3EB080261EB41
:100770000E0101FA07F722FA06F3F1401F43C5E91B
:10078000007100263146BDE8F087C2F12003D84051
:100790000CFA02FC21FA03F3914001434FEA1C4793
:1007A0001FFA8CFEB3FBF7F007FB10360B0C43EA85
:1007B000064300FB0EF69E4204FA02F408D91CEB35
:1007C000030300F1FF382FD29E422DD90238634433
:1007D0009B1B89B2B3FBF7F607FB163341EA0341D3
:1007E00006FB0EF38B4208D91CEB010106F1FF3822
:1007F00016D28B4214D9023E6144C91A46EA004619
:1008000038E72E46284605E70646E3E61846F8E6AA
:100810004B45A9D2B9EB020864EB0C0E0138A3E7F3
:100820004646EAE7204694E74046D1E7D0467BE7D4
:10083000023B614432E7304609E76444023842E74C
:10084000704700BF10F8012B11F8013B012A28BFA7
:100850009A42F7D0D01A7047034613F8012B002AAA
:10086000FBD1181A013870472DE9F04F2DED028B9E
:100870009FEDAB8B9BB081468A4615461C460026F1
:10088000287810B9304600F0CBBD6B1C25280293A8
:1008900006D05146C8470028C0F2C28501362EE274
:1008A000182200210CA81AF0D1FA6B78252B59D008
:1008B0006A1C174612F8013B2B2B00F08B8079D86D
:1008C000202B00F08C80232B00F08E809DF8383098
:1008D00003F04402442A03D16FF386138DF83830B5
:1008E0009DF838300A9743F080038DF838303B7814
:1008F0002A2B7ED19DF8393043F001038DF8393031
:100900007B1C0A931A782E2A9DF839200CBF0121EE
:10091000002161F341028DF839200BD15A1C0A9253
:100920005A782A2A7BD19DF83920023342F00402FA
:100930008DF83920194611F8010B6C2800F0CF8092
:100940007DD8682800F084806A2800F0D2804C2886
:1009500000F0D6809DF8392019466FF3C6028DF855
:10096000392080E0AA1C8DF83B3002929DF8393086
:10097000DF0740F1788154F804BBBBF1000F07DAC0
:100980009DF83820CBF1000B42F004028DF838209E
:10099000580740F1718154F8048BB8F1000F80F2D0
:1009A00070819DF839306FF341038DF839304FF085
:1009B000FF3866E12D2B06D0302B87D19DF83830DB
:1009C00043F0400303E09DF8383043F004038DF812
:1009D00038306EE79DF8383043F00803F7E79DF8AC
:1009E000383043F01003F2E79DF8383043F020032D
:1009F000EDE70AA803F0CEFF0A9BBB4281D09DF829
:100A000038700F90C7F3400141EAD07207F07D01C2
:100A1000520062F07F020A438DF8382071E70AA87D
:100A200003F0B8FF9DF838301090C3F3400242EA5B
:100A3000D07060F341038DF838300A9B7AE7742850
:100A40009DF8392059D07A2884D11346062241E0F6
:100A50005A78682A9DF839203AD1012161F3C602FB
:100A6000991C8DF839200B4613F8012B782A029334
:100A70008DF83B2000F2CD80572A55D8412A04D06A
:100A8000A2F14503022B00F2C4809DF83A30042104
:100A900061F302038DF83A3002F0DF039DF839204C
:100AA000A3F14108D8F1000343EB080363F3C71235
:100AB000D3B28DF83920120600F1D38003F078020A
:100AC000182A40F0A3806FF3C6038DF839308AE00E
:100AD0001346022262F3C6038DF83930C3E75A7811
:100AE0006C2A9DF8392001D10421B7E7134603226F
:100AF000F0E79DF839300522ECE713460722E9E7D5
:100B0000BDF8383023F4F04323F0020343F480436C
:100B100043F00203ADF83830A5E700BFAFF3008023
:100B20000000000000000008A2F15803202B70D83C
:100B300001A151F823F000BFEB0B0408130C0408CB
:100B4000130C0408130C0408130C0408130C0408F9
:100B5000130C0408130C0408130C04088B0A040873
:100B6000130C0408EB0B0408BD0B04088B0A0408E3
:100B70008B0A04088B0A0408130C0408BD0B040834
:100B8000130C0408130C0408130C0408130C0408B9
:100B9000210C0408EB0B0408450C0408130C040892
:100BA000130C0408450C0408130C0408EB0B040890
:100BB000130C0408130C0408EB0B04089DF83A30DE
:100BC000012161F302038DF83A309DF8393003F0CA
:100BD0007803402B02BF9DF8381041F001018DF8D9
:100BE0003810632A05D0002306E09DF83A30022130
:100BF000E7E7003B18BF01239DF83820C2F340010E
:100C00000B4363F341028DF83820AFE613F0380F41
:100C1000E9D09DF8383043F001038DF83830E2E731
:100C20009DF83A30032262F302038DF83A309DF8C2
:100C3000393003F07803A3F1400CDCF1000343EBFF
:100C40000C03D9E79DF83A30032262F302038DF8D2
:100C50003A309DF8393013F0780F14BF0123002388
:100C6000CAE70123C8E79DF93820002AB4BFDDF8A0
:100C70003CB04FF0FF3B8BE699077FF598AEDDF86F
:100C8000408000239DF83910CDE90F339DF83A30AC
:100C900003F00702042A09D18A0707D49DF93920F5
:100CA000002AB4BF4FF00D084FF0060803F0070309
:100CB000C1F3C301012B37D1CB1E042B21D8DFE8B0
:100CC00003F003090920200054F8043BDA17CDE9AA
:100CD0000C3206E0073424F00704F4E80223CDE9DF
:100CE0000C239DF83870BB0756D0029B2A4651460C
:100CF000484614F030FF0028C0F292830644029D5B
:100D0000BEE554F8043B01294FEAE372CDE90C3209
:100D100005D19DF830300C9300230D93E1E70229B3
:100D2000DFD1BDF93030D1E7022B23D1CB1E042B0C
:100D300013D8DFE803F0030A0A1212002068002229
:100D4000231D0C900D921C46CBE7E31D23F00703F7
:100D5000B3EC027B8DED0C7BF5E754F8043B0129E5
:100D60000C934FF000030D93D3D00229B9D1BDF8F5
:100D70003030D0E7042B09D1E31D23F0070303F142
:100D80000804D3E90023CDE90C23AAE7032B04BF11
:100D900054F8043B0C93A4E79DF83B20782AAED886
:100DA000572A00F28C80252A00F0D480242AA6D964
:100DB000412A03D0A2F14503022BA0D8DDE90C1390
:100DC000002BC0F2B781380700F1B68117F0100789
:100DD00018BF2027C3F30A55C3F31303CDE9081343
:100DE000002D40F0AB8151EA030014BF0120002028
:100DF000DB02462A43EA515308BF6622C90243EA8E
:100E0000E57C45EA010E5EEA0C0CCDE9081300F022
:100E10000382002840F0CB814FF0000CA5F2FE3594
:100E20004FF0050E6346DDE9080141F000410991EC
:100E300015F1020FC0F2C281BCF1000F01D0CDE963
:100E40000801002DDDE9080100F3CC81C5F1040C97
:100E5000099808991C35ACF1200E00FA05F521FA25
:100E60000CF120FA0EFE20FA0CF0294341EA0E01A3
:100E7000CDE9081002F0DF01472940F0D481DD1CE4
:100E800002DB984580F2CB81023AB8F1000FD2B272
:100E900001DD08F1FF389DF83810880600F1C381A4
:100EA000B8F1000FD4BF00210121662A039140F060
:100EB000BC8113EB080140F1BA810021BAE1A2F133
:100EC0005803202B3FF61BAF01A050F823F000BFC2
:100ED000D7100408FF0C0408FF0C0408FF0C0408DA
:100EE000FF0C0408FF0C0408FF0C0408FF0C0408A6
:100EF000FF0C0408BD0D0408FF0C0408810F040852
:100F000075100408BD0D0408BD0D0408BD0D0408CE
:100F1000FF0C040875100408FF0C0408FF0C0408FB
:100F2000FF0C0408FF0C04080D110408D710040876
:100F3000DB100408FF0C0408FF0C04085B0F040816
:100F4000FF0C0408D7100408FF0C0408FF0C040869
:100F5000D7100408514610469CE4B8F1000F0C9AD3
:100F600009DB4146104603921AF0DBF8039A00278A
:100F7000151862B9C3E610460392FFF76DFCF5E75A
:100F80000C9B00270DF14D058DF84C3013AAAB1AC0
:100F900007B101339DF83A00C10640F135820233B2
:100FA0000F9940060B4444BF10995B18BBF1000F2A
:100FB00023DDABEB030B9DF838305907C3F38008F2
:100FC0001BD4580640F13682002F00F0368251467D
:100FD00038460392C8470028C0F2228247460136AD
:100FE0004FF03008039A5E445B46A6EB0B000BF112
:100FF000FF3B002B00F30C82064647B151463846B2
:101000000392C8470028C0F20B820136039A9DF86C
:101010003A30590640F164829DF93930B61A002BF6
:1010200080F21A821746B846F31917F8010B702898
:1010300040F00682109F1E461F44BB1B002B00F38E
:1010400048822B4642465146484614F084FD00280B
:10105000C0F2E681304406468344ABEB0603002B26
:101060007FF74DAE51462020C8470028C0F2D881F6
:101070000136F2E73D072CD417F0100718BF2027E0
:10108000DDE90C23002B06DA52424FF02D0763EB0B
:101090004303CDE90C230DF165030EAA009313ABB6
:1010A000DDE90C0103F08CFC0246B8F1000F0DF1F4
:1010B0006505FFF65EAF9DF83810AB1A6FF3861129
:1010C00098458DF838107FF654AFA8EB03030F93C3
:1010D0004FE72B27D4E70027DDE70C98002800F026
:1010E0008F810DF165030EAA00210027009313AB39
:1010F00003F066FCBDF83A30024603F0EF0343F418
:10110000F04343F01003ADF83A30CEE70C9B0729CB
:101110003FF6F5ADDFE801F00C04060C08080C0CF6
:101120001E70ECE51E80EAE5F217C3E90062E6E511
:101130001E60E4E52D274DE62B274BE640F2FF70BD
:10114000854231D10132B9480B43D2B2125C02F070
:1011500003021BD1012A11D149238DF84C304E23B3
:101160008DF84D3046238DF84E300DF14F059DF82A
:1011700038306FF386138DF8383007E769238DF820
:101180004C306E238DF84D306623ECE7012A07BF03
:101190004E2341226E2361220CBF8DF84C308DF816
:1011A0004C308DF84D20DEE7002021E6013D491846
:1011B0005B41002BFADACDE908132DE64008AC4676
:1011C000013540EAC1704908B1F1333FF6D20EFB58
:1011D00001F5013BA0FB0E0129440CF102054FF083
:1011E000010C25E6023005F1FF3541F10001CDE9A2
:1011F000080108A8CDE9032314F07EFC049B039AA0
:101200000133DDE90810491805F1FF354041002898
:10121000F9DACDE9081014E600231D4616E6A8EB1E
:101220000308662237E600213FE608F10101102994
:10123000A8BF102110200D4607908DED0A8BDDE927
:101240000A01A5B9089D4019099D41EB0501B1F1BD
:10125000805F1BD2CDE90801662A40F09980002BFF
:1012600023DC30210DF14D058DF84C102FE04008A6
:10127000013D40EAC1704908CDE90A010AA8CDE95B
:10128000042314F039FCDDE90423D8E7400840EAE0
:10129000C1704908CDE9080108A8CDE9042314F07C
:1012A0002BFC059B049A0133D6E713AD079900295F
:1012B0000BDD07A908A8CDE9042314F035FC059B34
:1012C000049A013B05F8010BF0D10F9300239DF820
:1012D0003810890602D4B8F1000F1DDD2E2105F863
:1012E000011B9BB1B8F1000F16DD59429DF83A0081
:1012F0004145A8BF41460029A8EB01080F91D4BF82
:101300000021012161F345108DF83A00B8F1000F7A
:1013100002DD0799002956DC0399002963D1CDF835
:10132000408002F0DF01452921D1002B2946B8BFBA
:101330005B4201F8022BB4BF2D222B22632B6A7073
:1013400009DD6420E91C93FBF0F202F1300C00FB94
:10135000123385F802C00A200D4693FBF0F200FB21
:10136000123302F1300C303305F802CB4B700F9B77
:10137000002B43DC109B002BD4BF002301239DF8DE
:101380003A2063F3861200238DF83A202B70FDE596
:1013900007A908A8CDE9042314F0C6FB9DF838106E
:1013A00030288DF84C00DDE9042318BF03F1FF332A
:1013B000880602D4B8F1000F12DD2E210DF14E0582
:1013C0008DF84D10A2E707A908A808F1FF38CDE96C
:1013D000042314F0A9FB05F8010BDDE9042395E7CC
:1013E0000DF14D0598E700211091284615F8011DD3
:1013F0003029FAD02E2918BF054692E70123BEE70F
:101400000B4D07466A1FC2E5010748BF0133C7E518
:10141000514640460392C8470028039ABFF6E4AD00
:101420001BB0BDEC028BBDE8F08F00BF6433060833
:10143000A2FA05084FF02008D5E54FF03008D2E5B4
:101440005146C8470028BFF6EEADE9E75146039282
:10145000C8470028039AE3DB10781746354B06EBA4
:1014600002080132C35C5B07F0D49DF83A300F9E4E
:10147000990607D4B044002EA8EB060206F1FF3609
:101480000FDC904638782E2808D15146C8470028EE
:10149000C6DB002E08F1010809DC0137A8EB0706BE
:1014A0000EE051463020C8470028E4DAB8E751463C
:1014B0003020013EC847EAE75146C8470028AFDB65
:1014C000B846F3191B4A17F8010B125C5207F3D404
:1014D000B0E551463020C8470028A1DB0136ACE515
:1014E000D80601D4190707D5514630200392C847C2
:1014F000002895DB0136039A9DF83A30DB0608D5C3
:1015000051469DF83B000392C847002888DB01360E
:10151000039A0F9F3744BB1B002B01DC2B4692E53F
:10152000514630200392C8470028FFF679AF0136B4
:10153000039AF0E7653306082DE9F04F07468A461F
:10154000144650682DED028B87B00FF0D7FD05468D
:1015500060B96FF015043A4A0221384615F0AFF928
:10156000204607B0BDEC028BBDE8F08F0022A068DA
:10157000114611F033FD00228046E068114611F05B
:101580002DFD002281462069114611F027FDBAF198
:10159000060F064616D100226069114611F01EFDA5
:1015A000C3B20293AB6804AA414628465B689847D9
:1015B00050B16FF004042346224A0221384615F048
:1015C0007EF9CDE70023ECE7DDE904434FF0FF3A75
:1015D000A9FB04B0039309FB0309584616A3D3E9FA
:1015E00000234946FEF7ACFFDA45174B08EE100A18
:1015F00073EB090302D26FF08504DCE7A6FB0494C9
:10160000039B06FB034648460BA3D3E90023314660
:10161000FEF796FFCA450C4A0346B241EBD3AA68CF
:101620002846029900914146146818EE102AA047F6
:101630000446002894D0BEE700CA9A3B0000000090
:101640007A20060890200608FFC99A3B0000000097
:101650002DE9F041154690B007460E46002209A933
:10166000284611F0BBFC099B04461B78A3B1DFF8A8
:10167000F880002458F8041B2846FFF7E3F858B117
:101680000134392CF6D138462B46354A022115F063
:1016900016F96FF0850020E0B3680AAAA1B23046BF
:1016A0001B699847002818DBDDED0B7A382CB8EE63
:1016B000E76B9FED295B86EE057BDDED0A6AB8EEF0
:1016C000E66B37EE067B0BDD2346264A00213846C3
:1016D0008DED007B15F0F3F8002010B0BDE8F0812F
:1016E00024F00402204B032A53F824300BD00B2C97
:1016F00009D00093002123461C4A38468DED027B19
:1017000015F0DDF8E8E7DDED0F6A002100933846BB
:10171000B8EEE64B2346164A84EE056BDDED0E4A25
:10172000B8EEE44B8DED027B36EE046B8DED066B6F
:10173000DDED0D6AB8EEE64B84EE056BDDED0C5A7F
:10174000B8EEE55B36EE056B8DED046B15F0B7F882
:10175000C2E700BFAFF300800000000080842E418C
:10176000FC2106088D21060878020220AC2106081B
:10177000C8210608000000002DE9F0472DED028B7E
:101780009FED478B84B00446474E4FF01003EFF3B4
:10179000118783F31288BFF36F8FD4F8F8508DB997
:1017A000022104F5887018F041FE002835D100238D
:1017B00004F5807239463D4802938DED008B10F0A0
:1017C000E7FDE2E7D4F8FC202B689542C4F8F83036
:1017D00001D1C4F8FC30D4F8103143F00203C4F84E
:1017E0001031EB6823F0040343F00103EB606B68F6
:1017F00087F31188BFF36F8F284698474FF0100387
:10180000EFF3118883F31288BFF36F8FEB689907AA
:1018100023F001020BD4EA600EE004F58475002287
:101820000121284618F037FF0028F8D1BFE723F040
:1018300003033068EB6070B9D4F8103123F0020371
:10184000C4F8103188F31188BFF36F8FD8059CD48A
:1018500010F0A2FC99E70027D0F80090BA46436840
:1018600002469D420BD102688FB973683260834291
:1018700000D1726040F808AB10F034F93A46B9F183
:10188000000FD9D048461746D9F80090E7E77368AB
:101890003A60834208BF7760ECE700BFAFF3008097
:1018A000FFFFFFFFFFFFFFFFEC8C0320AF9A032039
:1018B0002DE9F04F8BB00C46DDF8508016461F46E0
:1018C000054611F095FBD0F800B05846FEF7C4FF6E
:1018D00000230893D8F8003094F818902268073352
:1018E00023F0070303F10801C8F800108246D3E98A
:1018F0000001C4E912019FED987B94ED120BB0EE4C
:10190000C06BB4EE476BF1EE10FA24DDB5EEC00B00
:10191000F1EE10FA02D52D2384F84330904B914814
:10192000B9F1470F94BF984680460323236122F004
:1019300004020023226004930097334609AA21463B
:10194000284619F01BFB013040F08A804FF0FF3031
:101950000BB0BDE8F08FB4EE400BF1EE10FA09D7F2
:1019600010EE903A002BBCBF2D2384F843307E4804
:101970007E4BD5E7636809F0DF010491591C3CD127
:10198000062363600023039308ABCDE9019342F47F
:10199000806207AB6168009322600DF11B0328464B
:1019A00019F05CFA049B0799472B804608D1C81CA4
:1019B00002DB6368994241DDA9F102095FFA89F906
:1019C000B9F1650F20D801394A4604F1500007915A
:1019D00019F096FA089A04901318012A236102DC80
:1019E0002268D20701D5013323619DF81B30002BFB
:1019F000A2D02D2384F843309EE704994729C1D112
:101A0000002BBFD10123BCE7B9F1660F18D1002923
:101A100063680BDD216113B92268D00702D5013359
:101A20000B4423610023A1650493DEE713B9226808
:101A3000D20701D50233F4E70123F2E74FF067093B
:101A4000089B994205DB23682161D807EAD54B1C26
:101A5000E7E70029D4BFC1F1020201221344E0E705
:101A600023685A0507D42369424631462846B847B9
:101A700001302AD16AE7B9F1650F40F2E28094EDB6
:101A8000127BB5EE407BF1EE10FA33D1384A0123D8
:101A900031462846B84701303FF458AFDDE9072307
:101AA0009A4202DB2368D8070FD553465A4631467F
:101AB0002846B84701303FF449AF4FF0000804F121
:101AC0001A09089B013B434509DC23689B0700F189
:101AD0000881E068099B9842B8BF184638E701239F
:101AE0004A4631462846B84701303FF42FAF08F147
:101AF0000108E6E7079B002B3CDC1D4A0123314629
:101B00002846B84701303FF421AFDDE907231343EE
:101B100002D12368D907D8D553465A4631462846BC
:101B2000B84701303FF412AF4FF0000904F11A0A30
:101B3000079B5B424B4501DC089B95E7012352461E
:101B400031462846B84701303FF400AF09F101099A
:101B5000EEE700BFAFF30080FFFFFFFFFFFFEF7F67
:101B6000653406087FFB05086D34060869340608ED
:101B7000B42F0608089AA36D9A42A8BF1A46002AF5
:101B8000914638DC0023059329EAE97904F11A0229
:101B9000A36D05990493A3EB09038B4233DCDDE9C4
:101BA00007239A423CDB2368DA0739D4089B049A5E
:101BB00007999A1AA3EB01099145A8BF9146B9F17B
:101BC000000F35DC4FF0000829EAE97904F11A0A20
:101BD000DDE907239B1AA3EB090343457FF775AFA4
:101BE0000123524631462846B84701303FF4AEAE95
:101BF00008F10108ECE71346314642462846B8474B
:101C00000130BFD1A2E60123314628460492B847ED
:101C100001303FF49BAE059B049A01330593B7E76F
:101C200053465A4631462846B8470130BED18DE664
:101C3000049A4B46424431462846B8470130C1D148
:101C400084E6089A012A01DCDB0737D501234246E6
:101C500031462846B84701303FF478AE53465A46DD
:101C600031462846B84701303FF470AE94ED127B00
:101C7000B5EE407BF1EE10FA1BD0089B08F1010293
:101C8000013B31462846B84701300ED15EE60123BC
:101C90004A4631462846B84701303FF457AE08F16E
:101CA0000108089B013B4345F1DC049B04F1500211
:101CB000DBE64FF0000804F11A09F2E7012342467F
:101CC000DFE701234A4631462846B84701303FF452
:101CD0003DAE08F10108E36809995B1A4345F0DC61
:101CE000F7E64FF0000804F11909F4E700000000DE
:101CF0002DE9F04F2DED028B456A91B08DED020B71
:101D000059EC108B1C9C0691064608920C9375B9F1
:101D1000102010F023FE0246706220B9AA4BEA217F
:101D2000AA4811F08DFDC0E901550560C560736AD0
:101D3000196851B15A684A60012393408B6030465C
:101D400011F0A6F9736A00221A60B9F10003BBBF53
:101D500023F00043039300230122ACBF23602260E1
:101D60009B4B039CA3431CD10C9A42F20F7313604C
:101D7000C4F3130353EA080300F0FE841D9B63B908
:101D8000944B1FE0944B019308331D9A1360019804
:101D900011B0BDEC028BBDE8F08F8E4B0193033385
:101DA000F3E79DED028BB5EE408BF1EE10FA0BD10F
:101DB0000C9A012313601D9B002B00F0DA848748E6
:101DC0001860431E0193E2E70FA90EAA3046B0EE59
:101DD000480B11F0D9FBC4F30A5105460E980029AF
:101DE00046D018EE904AC4F3130453EC182B44F079
:101DF0007F5343F44013A1F2FF31002443EC162B30
:101E0000B7EE087B9FED6A5B36EE477B9FED6A6B12
:101E1000A7EE056B9FED6A5B07EE901AB8EEE74BF5
:101E2000B0EE467BA4EE057BFDEEC76BB5EEC07B46
:101E3000F1EE10FA16EE90BA0A9408D5B8EEE66BF9
:101E4000B4EE476BF1EE10FA18BF0BF1FF3BBBF19C
:101E5000160F2FD8624B03EBCB0393ED007BB4EE50
:101E6000C78BF1EE10FA01D50BF1FF3B002322E006
:101E70000F99014401F23243202BC1BFC3F140034B
:101E800004FA03F301F2124428FA04F8D6BFC3F1AE
:101E9000200343EA080808FA03F807EE908AB8EE30
:101EA000677B013917EE904A53EC172BA4F1F873B6
:101EB0000124A3E701230B93431A5A1E45BFC3F124
:101EC0000103049300230023059254BF0493059358
:101ED000BBF1000F18DB059BCDF824B05B440593E4
:101EE0000023069A092A49D8052AC4BF043A069253
:101EF000069AA2F10202CCBF00240124032A48D88A
:101F0000DFE802F00B2E2C3A049B0022A3EB0B031C
:101F100004930992CBF10003E3E700220792089AA9
:101F2000002A39DC4FF0010AD1465246CDF820A0F4
:101F3000776A00217960042000F1140C94457968D7
:101F40002FD930460D9311F063F80D9B0190024696
:101F5000002849D1234B4FF4D571E1E60122DDE79A
:101F600000220792089A0BEB020A0AF101094A467D
:101F7000012AB8BF0122DBE70122F2E70124002297
:101F8000CDE906244FF0FF3A0021D14612220891F4
:101F9000CEE701220792F5E7DDF820A0D1465246B0
:101FA000C6E7013179604000C6E700BFAFF30080AB
:101FB00061436F63A787D23FB3C8608B288AC63F4F
:101FC000FB799F501344D33FA0340608B73406086A
:101FD0000000F07F9C34060893340608B52F0608ED
:101FE00080C4050834350608726A01991160B9F198
:101FF0000E0F6CD8002C6AD0BBF1000F40F3A0800C
:10200000C1490BF00F0201EBC2021BF4807F92ED7D
:10201000007B4FEA2B1100F08780BC4A92ED086BE1
:1020200088EE066B8DED026B01F00F010322B748BD
:1020300000297BD19DED026B86EE077B8DED027B47
:102040000B99002900F0A280B7EE006B9DED027B9A
:10205000B4EEC67BF1EE10FA40F19880B9F1000FB2
:1020600000F09480BAF1000F2FDDB2EE046B27EE82
:10207000067B8DED027B0BF1FF37013250469DED63
:10208000026BB1EE0C5B07EE902AB8EEE77BA7EE91
:10209000065B15EE904A52EC151BA4F15072002815
:1020A00077D1B1EE047B36EE476B42EC171BB4EEF2
:1020B000C76BF1EE10FA00F36482B1EE477BB4EE29
:1020C000C76BF1EE10FA00F159828DED028B0F9A79
:1020D000002AC0F21D81BBF10E0F00F319818A4B5B
:1020E00003EBCB0393ED006B089B002B80F2B780D2
:1020F000B9F1000F00F3B38040F04082B1EE047BF1
:1021000026EE076B9DED027BB4EEC76BF1EE10FA85
:102110004C464F4680F21682DDF80480312308F8E1
:10212000013B0BF1010B12E2022280E7CC0704D540
:1021300090ED006B013227EE067B4910083077E7FF
:1021400022D0CBF10001704A01F00F0002EBC00277
:1021500092ED007B28EE077B8DED027B6B48091129
:102160000024022229B9002C3FF46AAF8DED027BD6
:1021700066E7CF0705D590ED006B0132012427EE0D
:10218000067B49100830EDE7022259E75F464846D2
:1021900075E742EC171B5C4A02EBC00212ED024BE2
:1021A000019A1418079A52B3B6EE003BB7EE002B13
:1021B000DDF8048083EE045BB2EE043B35EE477B32
:1021C000FDEEC64B14EE902AB8EEE45B303236EEEC
:1021D000456BB4EEC76BF1EE10FA08F8012B39D459
:1021E00032EE465BB4EEC75BF1EE10FA72D4A04556
:1021F0003FF46BAF27EE037B26EE036BE0E7DDF8E1
:10220000048027EE047B2146B2EE043BFDEEC64B74
:1022100014EE902A303208F8012BA045B8EEE45BAA
:1022200036EE456B18D1B6EE005B37EE054BB4EEDB
:10223000C46BF1EE10FA4DDC35EE477BB4EEC76BA4
:10224000F1EE10FA7FF541AF8846013918F8013CEC
:10225000302BF9D0BB462AE026EE036BD6E79DED86
:10226000027BB2EE044BDDF8048087EE065BBDEE28
:10227000C55B15EE103A303308F8013B019BA8EB23
:1022800003039945B8EEC53BA3EE467B33D137EE49
:10229000077BB4EEC67BF1EE10FA1ADCB4EE467B97
:1022A000F1EE10FA03D115EE103AD90711D42946F0
:1022B000304610F0EDFE00230C9A88F800300BF148
:1022C000010313601D9B002B3FF461ADC3F8008038
:1022D0005DE55F464346984613F8012D392A06D13D
:1022E000019A9A42F7D10199302201370A701A787F
:1022F00001321A70AEE727EE047BB5EE407BF1EEBB
:1023000010FAB2D1D3E700BF80C4050858C405084D
:102310000799002900F0D1800699012900F3B480C3
:102320000A99002900F0AC8002F23342DDF81080F7
:102330001C460A93049B13440493059B01211344F8
:102340003046059310F00CFF0A9B0746B8F1000FCA
:102350000DDD059A002A0ADD42450499A8BF4246D0
:10236000891A04910599A8EB02088A1A059203B309
:10237000079A002A00F0A680002C13DD3946224679
:1023800030460D9310F0ACFF2A4601460746304612
:1023900010F0FCFE29460A90304610F079FE0A9AA9
:1023A0000D9B15461A1B04D02946304610F098FFA5
:1023B00005460121304610F0D3FE099B002B044650
:1023C00040F382801A460146304610F089FF069B92
:1023D000012B04467BDD00230A93226904EB820271
:1023E000106918F05FFFC0F12000059B184410F041
:1023F0001F0000F08D80C0F12002042A40F3868087
:10240000C0F11C00049B03440493059B03448044D7
:102410000593049B002B05DD29461A46304610F033
:10242000B9FF0546059B002B05DD21461A463046BF
:1024300010F0B0FF04460B9B002B6BD021462846C2
:1024400018F07FFF002865DA002329460A2230466B
:1024500010F040FE079B0BF1FF3B0546002B00F000
:102460009281394600230A22304610F033FEBAF139
:10247000000F074600F38E80069B022B51DC89E09B
:102480000E9AC2F1360251E709F1FF34A342BFBFF1
:10249000099AE31AD2181346B7BF09931C1B2346A7
:1024A0000024B9F1000FB5BF049ADDF81080A2EB4B
:1024B00009084A46B8BF00223BE7DDF81080079FB5
:1024C0001C4643E71A466FE7069B012B18DC029B6C
:1024D000B3B9039BC3F31302A2B923F00042120D58
:1024E00012058AB1049B01330493059B01330593C4
:1024F00001230A93099B002B7FF46FAF012074E73F
:102500000023F6E7029BF4E70A92F3E781D0104636
:102510001C3077E7B9F1000F37DC069B022B34DD66
:10252000CA46BAF1000F0DD1214653460522304666
:1025300010F0D0FD01460446284618F002FF00289E
:102540003FF7EAAD089BDDF804806FEA030B4FF01C
:1025500000092146304610F09BFD002F3FF4A7AE46
:10256000B9F1000F05D0B94503D04946304610F007
:102570008FFD3946304610F08BFD98E60024274643
:10258000E0E7BB4604460746C6E5079BCA46002B64
:1025900000F00081B8F1000F05DD394642463046B3
:1025A00010F0F8FE07460A9B002B5DD07968304694
:1025B00010F02EFD804628B9824B024640F2EA21F7
:1025C000FFF7AEBB3A690232920007F10C010C3002
:1025D00018F001FC01224146304610F0DBFE019B61
:1025E00001330493019B53440893029B03F00103BE
:1025F000B94607930746049B2146013B28460293B0
:1026000018F0C5FD03463033059049462846099326
:1026100018F097FE3A4682462146304610F02AFFCF
:10262000C268099B80460ABB0146284618F089FE0D
:10263000099B024641463046CDE9093210F028FD9B
:10264000069B0A9ADDF8108043EA0201079B0B43C0
:10265000099B0DD1392B29D0BAF1000F01DD059B63
:102660003133029A137074E73846B8E70122E1E784
:10267000BAF1000F06DB069941EA0A0A07995AEAFD
:10268000010120D1002AECDD2946012230460493C5
:1026900010F080FE2146054618F053FE0028049BEA
:1026A00002DCDED1DA07DCD5392BD8D1029A392306
:1026B000137043469846013B18F8012C392A51D033
:1026C00001321A7045E7002A03DD392BEED00133C1
:1026D000C7E7049A089902F8013C8A422BD02946A0
:1026E00000230A22304610F0F5FCB94505464FF0AC
:1026F00000034FF00A024946304607D110F0EAFCC9
:1027000081460746049B0133049374E710F0E2FC12
:102710003946814600230A22304610F0DBFC07468A
:10272000F0E7BAF1000F019ACCBFD0464FF0010894
:1027300090444FF00009294601223046029310F0E0
:1027400029FE2146054618F0FCFD0028B1DC02D127
:10275000029BDB07ADD44346984613F8012D302A7F
:10276000FAD0F6E6019A9A42A4D10BF1010B31237B
:1027700078E7154BFFF726BB1D9B002B7FF402ABC0
:10278000124BFFF71FBBBAF1000F03DC069B022BB5
:102790003FF7C7AEDDF804802146284618F0F7FC65
:1027A00000F1300308F8013B019AA8EB02029245C0
:1027B000B7DD294600230A22304610F08BFC05467F
:1027C000EAE700BF34350608B42F0608933406083C
:1027D00013B500230A4C8DF805008DF804308DF8F0
:1027E00006108DF807200022002301A904480FF0ED
:1027F0000BF818B1204617F0D9FDF4E702B010BD70
:10280000E4090220F7B50D4614460021174A064692
:1028100014F055F825F00403032B0DD0052D0BD033
:1028200023683046124A0221009354F8043C14F005
:1028300046F8012003B0F0BD6D0804340026B5420F
:1028400004F108040FD054F8080C18F0B0FA074649
:1028500054F8040C18F0ABFAF9B2C2B23046FFF7E4
:10286000B7FF0136EBE70020E4E700BFA0E605086C
:10287000F3E60508002313B50B4C8DF80530012352
:102880008DF806008DF804308DF807100022002323
:1028900001A905480EF0B8FF18B1204617F086FDD3
:1028A000F4E702B010BD00BFE40902202DE9F043B7
:1028B0008046D1F890000C468D6D00282DED028BDE
:1028C00083B091F8697091F9686043DB00F0F6F924
:1028D00007EE900A9FED207ADFED206AF8EEE77AA6
:1028E000D4F8980067EE877A87EEA67ADFED1C7A37
:1028F00087EE278ADFED1B7A28EE278ABDEEC88A8D
:1029000011F0EAFBB0B1D4E92540D0F8109083680B
:1029100001A95B68984750B9D9F80030E4B2019A30
:102920005A400123A3401A4214BF01200020B0FAEC
:1029300080F0400988F80200404688F8007088F866
:10294000016088ED018AC8F8085003B0BDEC028B25
:10295000BDE8F0830020BBE76F12833A00004842D5
:102960000AD7233C00007A44F0B5134D0024134FDE
:102970008BB0134A0021064613F0A1FF294607A891
:10298000FFF794FF9DF81C303A460021049330462F
:102990009DF91D309C3503939DF81E300293089BD2
:1029A0000193099B00932346013413F088FF032C05
:1029B000E4D100200BB0F0BD102A02201AE7050870
:1029C000A0E605082DE9F0412E4C0646236803F0E9
:1029D0000703022B09D92C4B4FF003012B48E31AB4
:1029E0009B0863F38F1113F0FEFA002764214FF068
:1029F000FF3086F8F471FFF73DFF47F23051642253
:102A0000304611F07CFB054639463846FFF732FF69
:102A100085B9236813F0060F09D01B4B4FF0020154
:102A20001B48E41AA40864F38F1113F0DCFA4FF08A
:102A3000FF3024E000F0A4FA05460028E9D134462E
:102A400006F5EA780A27C4E91E55226A536A5562D8
:102A50005B42A26F02FA83F3E26F9A42A367E367D5
:102A600004D0642011F044FB013FEED1C4E91E55AF
:102A70009C344445E6D10123002086F8F431BDE8BA
:102A8000F08100BFCC080220C80802206BE70508CF
:102A900063E7050810B5084A0021044613F00FFF4C
:102AA0000648FFF78FFF20B1054A0021204613F0AA
:102AB00006FF002010BD00BFA0E60508F029022097
:102AC00080E705082DE9F041364C984606460D464C
:102AD0002368174603F00703022B09D9324B4FF046
:102AE00003013248E31A9B0863F38F1113F07BFA5A
:102AF00096F8F431C3B9032388F8003088F8013020
:102B000088F80230236813F0060F02D14FF0FF302F
:102B100045E0254B4FF002012548E41AA40864F370
:102B20008F1113F060FAF1E7681E013F324602355B
:102B30004FF0640C4FF0010E17F8013F9C3210F873
:102B4000011F03EB830382F80CE01160A8424FEAF7
:102B500083014FEA4303B1FBFCF1B3FBFCF351608B
:102B60009360E9D147F230516422304611F0C7FA40
:102B7000002105460846FFF77DFE65B9236813F07E
:102B8000060FC3D0084B4FF002010A48E41AA4080C
:102B900064F38F11C5E700F0F3F90028EED1BDE82A
:102BA000F08100BFCC080220C8080220B1E7050868
:102BB0008DE70508A7E705082DE9F0430D4687B026
:102BC00014460021264A064613F079FE254B0DF1E6
:102BD0000C081A889B78ADF80C2088F802308DF824
:102BE00012308DF8163025F00403ADF81020032BB9
:102BF000ADF814200ED0052D0CD0236830461A4AAB
:102C00000221009354F8043C13F059FE012007B050
:102C1000BDE8F0836D0804340DF110090027AF42C0
:102C200004F108040DD054F8080C18F0C0F808F8A6
:102C3000070054F8040C013718F0B9F809F8010B33
:102C4000EDE705AB04AA41460848FFF73BFF002823
:102C5000DDD03046064A002113F031FE0020D6E7D1
:102C6000A0E6050850C40508C0E70508F0290220C1
:102C7000E6E7050870B50F4B0324002500269C22CB
:102C80000021184618F0E2F80A2214210346406792
:102C90009C338667C56780F88850C0E920124FF0E2
:102CA000FF32A418C0F89020E9D1034B83F8F44117
:102CB00070BD00BF102A0220F02902200A4B13B574
:102CC00003EB40001B689B6884881B8943B1634306
:102CD00001A90620019307F05FFC08B9019C2413A9
:102CE000204602B010BD00BFE82B0220014B00229D
:102CF0001A607047E82B0220034B002083F8700015
:102D000083F82401704700BF2C2C0220334B002194
:102D100000B55A8EA7B024921A8E2392DA8D229291
:102D20009A7B21929A8920929A7A1F921A891E92EE
:102D300093F83F201D9293F83E201C9293F83D207B
:102D40001B9293F83C201A9293F83B20199293F827
:102D50003A2018929A7F1792B3F91C2016929A7E05
:102D60001592B3F9182014929A7D1392B3F9142096
:102D700012929A7C1192B3F9102010929A790F92C4
:102D80009A880E929A780D921A880C929A8D0B92CC
:102D90005A8D0A921A8D0992DA8C08929A8C0792AF
:102DA000B3F922200692B3F92020059293F8392036
:102DB000049293F83820039293F83720029293F804
:102DC0003620019293F835200092054A93F834306A
:102DD00013F075FD002027B05DF804FB2C2C0220B9
:102DE0009CE805084D4B2DE9F04F93F86020B3B0F7
:102DF00093F85AC0279293F86120B3F954E02892CF
:102E000093F8622093F86A10299293F8632093F85C
:102E10006B402A9293F8642093F85C502B9293F8BD
:102E20005B2093F86C602C9293F8652093F86D709A
:102E30002D9293F86620B3F956802E9293F867206E
:102E4000B3F958902F9293F86820DFF8DCA0309205
:102E500093F86920319293ED107A314A93F825B1B5
:102E6000B7EEC77A93ED116ABBF1000F18BF524657
:102E700003F5827A93ED125AB7EEC66A93ED134AC0
:102E8000CDF890A0B7EEC55ADFF8A0A0B7EEC44ABF
:102E9000CDF88CA093F86EA0CDF888A093F85EA032
:102EA000CDF884A093F85DA0CDF880A093ED143AFE
:102EB0001C92319AB7EEC33A0B9100210A92309AD4
:102EC0008DED1E3B8DED1A4B8DED185B8DED166B68
:102ED0008DED147BCDE910CECDE91289CDE90E67D9
:102EE000CDE90C4509922F9A08922E9A07922D9AB5
:102EF00006922C9A05922B9A04922A9A0392299A66
:102F00000292289A0192279A0092064A93F85F301B
:102F100013F0D5FC002033B0BDE8F08F2C2C02203C
:102F200042EA05084AEA05083BEA050833EC0508C9
:102F3000022907B50BD013680221009352F8043C14
:102F4000094A13F0BCFC012003B05DF804FB0749FB
:102F50005068FDF777FC0038054B18BF012083F857
:102F600025010020F0E700BF8BEB050842EA0508C9
:102F70002C2C0220014B93F8380070472C2C022097
:102F8000074B93F8610050B993F8620038B993F891
:102F90005F0020B993F8600008B993F8700070479B
:102FA0002C2C022010B50F4C40220021204617F097
:102FB0004DFF3022002104F1400017F047FF0021AF
:102FC00001231C2204F58470C4E91C31C4E93E11BC
:102FD000C4E9401117F03AFF40F20113A4F824317C
:102FE00010BD00BF2C2C0220054B0022C3E9C622D5
:102FF000C3F820234FF48072A3F82423704700BF46
:10300000542D02202C4B00212C4A93ED0D7AB7EE63
:10301000C77A00B59BB08DED187B93ED097AB7EEBA
:10302000C77A8DED167B93ED087AB7EEC77A8DEDF2
:10303000147B93ED077AB7EEC77A8DED127B93ED93
:103040000C7AB7EEC77A8DED107B93ED0B7AB7EE65
:10305000C77A8DED0E7B93ED0A7AB7EEC77A8DEDC8
:103060000C7B93ED067AB7EEC77A8DED0A7B93ED74
:10307000057AB7EEC77A8DED087B93ED047AB7EE4B
:10308000C77A8DED067B93ED037AB7EEC77A8DEDA7
:10309000047B93ED027AB7EEC77A8DED027B93ED58
:1030A000017AB7EEC77A8DED007B13F008FC0020A3
:1030B0001BB05DF804FB00BFB030022039EC0508FE
:1030C000014B00221A607047B0300220042910B56D
:1030D000144686B00AD013680221009352F8043CCB
:1030E000154A13F0ECFB012006B010BD0023C822E6
:1030F00060680493ADF814308DF81630CDE90223E2
:1031000017F055FE8DF81400A06817F050FE8DF8EA
:103110001500E068094C17F04AFE8DF816000022F1
:10312000002302A920460EF06FFB0028DCD02046C9
:1031300017F03CF9F3E700BFC4EC0508BC330220EC
:10314000F8B5002304460D4603708360481C11F057
:1031500030F8071E25DBE81C11F02BF8061E20DBDB
:10316000681D11F026F8031E1BDB27736673A3731B
:10317000EB79202B15D105F10806062211493046BE
:1031800017F0A8FF70B9AB7B202B0BD1CA2305F138
:103190000F00237017F00BFEA060A3680BB9C823C3
:1031A0002370F8BD05220849304617F093FF002828
:1031B000F7D16B7B202BF4D1C92305F10E002370CE
:1031C000E8E700BFDFEC0508E6EC050838B50023AA
:1031D0000D4604463D49037083818373C0E9013382
:1031E0002846FDF72FFB10B90123237068E038490A
:1031F0002846FDF727FB08B90223F6E7354928469C
:10320000FDF720FB08B90323EFE733492846FDF714
:1032100019FB08B90423E8E730492846FDF712FBFB
:1032200008B90523E1E72E492846FDF70BFB08B94D
:103230000623DAE72B492846FDF704FB08B90A23E1
:10324000D3E729492846FDF7FDFA08B90B23CCE757
:1032500026492846FDF7F6FA08B90C23C5E72449A4
:103260002846FDF7EFFA08B90D23BEE721492846A5
:10327000FDF7E8FA08B90E23B7E71F492846FDF71E
:10328000E1FA08B90F23B0E71C492846FDF7DAFA3E
:1032900008B91023A9E71A492846FDF7D3FA08B957
:1032A0006423A2E717492846FDF7CCFA08B965233D
:1032B0009BE72B78232B07D129462046FFF740FFB9
:1032C00000232046636038BD00238EE71EF5050805
:1032D000ECEC0508F5EC0508FEEC05080CED05081E
:1032E00019ED050826ED05082FED05083FED050849
:1032F0004BED050858ED050864ED050872ED05086D
:103300007FED0508DEEB0508022910B586B00AD06E
:1033100013680221009352F8043C0B4A13F0CFFAD1
:10332000012006B010BD094C02A85168FFF74EFFFE
:103330000022002302A920460EF066FA0028F0D0F1
:10334000204617F033F8F3E788ED0508BC33022078
:10335000F0B5002585B004460E460295ADF80C5038
:103360008DF80E50CDE90055FA22002369465648E3
:103370000EF0A0FAD8B96568002D57D0019B002B3C
:1033800040F0A0806A4604F1100302AF15460833EE
:1033900003CDBD4243F8080C43F8041C2A46F5D17E
:1033A00028681860A988AA79002599809A716368AD
:1033B0006BB30BF0EDF8236A00224FF0FF37C01A11
:1033C000424BC31842F100019F4272EB010325BF3B
:1033D00000F5D2303E4B44F6AC5000F5F07028BFFB
:1033E000B0FBF3F06368834211D204F1100322466C
:1033F00004F11C0153F8040B8B4242F8040BF9D181
:103400001988012511809B7893700023636004F173
:103410000C0354F8042B9C4246F8042BF9D1238862
:1034200028463380A378B37005B0F0BD9DF8001036
:1034300023788B420DD13833DBB2022BB7D8A36887
:10344000029A9A4205D1E368039D5D4035F07F45BD
:10345000ADD0019A0AB31F48036803F00703022B9B
:1034600009D91D4D4FF00303401B800860F38F13F3
:103470001A4812F0DEFD234604F1100204F10C019B
:1034800053F8040B8B4242F8040BF9D119881180D0
:103490009B7893700BF07CF820626B46224602AF5B
:1034A0001D46083203CDBD4242F8080C42F8041C08
:1034B0002B46F5D128681060A988AB790125918049
:1034C000937174E7054672E7BC330220E0A5010062
:1034D000C04B030008090220C8080220A1ED05081E
:1034E000F8B55A431926D0F81C520446069FB2FB81
:1034F000F6FC654511D25C00B4FBF6F4B5FBF4F2C2
:1035000004FB12551DB9BDE8F84010F032BEB3FB04
:10351000F6F39D420CD10749F5E73A44B2FBF6F2C7
:10352000954205D1034910F024FE0023C4F81C3253
:10353000F8BD00BF3EEE0508F0B5D0F81C72044699
:10354000A7F10803102B1CD806237B43303B242B08
:1035500028BF2423022A16D1254600221A4E934260
:103560008CBF08463046013204350068242AC5F86D
:10357000C0002863F3D1192F84BF0023C4F81C3284
:10358000F0BD0023E6E790260025DFF83CC006FBEF
:1035900002463436AB428CBF08466046006846F8A7
:1035A00025000135242DF5D1B2FA82F29023064987
:1035B0005209096803FB02420023343242F8231007
:1035C0000133242BFAD1D6E73EEE0508F0B50B788F
:1035D00085B004460025102B0DD8B3B1013B0F2B4D
:1035E00013D8DFE803F027313436383A1212123C90
:1035F00091969C9EA0A5C82B00F0D58007D8642B7F
:1036000000F0C980652B00F0C9807D491DE0C92B01
:1036100000F0D880CA2BF8D10B7B8A688DF80D306A
:103620004B7B8DF80C508DF80E308B7B03A98DF8F9
:103630000F306BE04FF47A730A2272490093322301
:103640002046FFF74DFF3FE06F492046B7E06F4946
:10365000FBE76F49F9E76F49F7E76F49F5E7D0F8FE
:103660001C226E4B5343B3F1553F2DD9B2F5407F29
:1036700001464FF003064FF0240784BF0023C0F833
:103680001C320020D4F81C22B0FBF7F3B2FBF6F298
:103690001A44D3B2542B21D802EB42024FF0000C53
:1036A000D2B2D343DBB200F5807081F8C45081F808
:1036B000C520043181F8C230B0F5105F81F8C3C075
:1036C000D1F8C0300B63DDD1204610F088FDD4F86E
:1036D0001C320133C4F81C3205B0F0BDA92B09D847
:1036E000553B03EB43035FFA83FC00236FEA0C02B4
:1036F000D2B2D8E7AA3B002203EB4303DBB26FEA66
:10370000030C5FFA8CFCCEE70922454910F092FDCC
:10371000DAE7002243492046FFF70EFFD4E70122F3
:10372000F8E70222F6E7C8230A223F49009387E719
:10373000D0F81C324F2B84BF0023C0F81C32D0F8C5
:103740001C52272D97BF242300255D4328239CBFAF
:10375000B5FBF3F5C5F12405FFF70CFC632809D888
:10376000242358436423B0FBF3F0C0F124008542C6
:1037700038BF054622460023214F2C4E9D428CBF68
:1037800039463146013304320868242BC2F8C000A0
:103790001063F3D198E710F082FD95E7C8230A2261
:1037A000234900954DE70B7B8DF80C508DF80D30BB
:1037B0004B7B8DF80E308B7B03A98DF80F3010F00A
:1037C000D8FC81E70B7B8A688DF80D304B7B8DF838
:1037D0000C508DF80E308B7B8DF80F304FF4166344
:1037E000B3FBF2F3D0F81C22934298BFC0F81C52EE
:1037F000D0F81C22B2EB530FBFF407AF03A924E7A4
:103800003EEE050836EE050846EE050842EE0508D0
:103810002EEE05082AEE050826EE0508ABAAAAAA90
:103820003AEE05084EEE050832EE050822EE0508D0
:103830004AEE050810B5082310221649164816F05E
:1038400087FD164C16480DF059FC606215480DF0C6
:1038500055FCA06214480DF051FCE06213480DF0D5
:103860004DFC2063606A10F078FC90B1A06A10F003
:1038700074FC70B1E06A10F070FC50B1206B10F075
:103880006CFC30B120460A4910F073FC204610F061
:10389000A6FC10BD1C310220BC3302209C3102204A
:1038A000BDED0508C6ED0508CFED0508D8ED050806
:1038B0003EEE050830B5144C85B0606A10F04DFC42
:1038C000F8B1A06A10F049FCD8B1E06A10F045FCEC
:1038D000B8B1206B10F041FC98B100256946204634
:1038E0000295ADF80C508DF80E50CDE90055FFF75C
:1038F0002FFD08B1C4F81C5269462046FFF766FE4A
:10390000ECE705B030BD00BF9C31022038B50A4C51
:10391000002564231022294604F124002562C4E90D
:103920000035C4E90255C4E90455C4E9065517F049
:103930008DFAC4F81C5238BD9C310220024670B585
:10394000461808480368B24200EB030406D001336E
:1039500012F8015B9BB225710360F3E70023084670
:10396000237170BDF0430220044B0022FF211A6036
:103970001A7103F58033D9701A717047F043022031
:10398000014801F0C5BE00BF28C7050810B50C46A8
:10399000084612F0ECFB054821460A2201F03CFEE5
:1039A0002046BDE8104012F011BC00BF28C7050832
:1039B00037B50546084605F58033DB78FF2B07D180
:1039C0002B1D104A002103B0BDE8304012F077BF34
:1039D0002A68531C9BB21C46A24211D029190134FB
:1039E0000979A4B20A29F7D1231D064A00210190C2
:1039F0002B4412F064FF0198002CE1D103B030BDDC
:103A00001C46F1E78B0106080146034808B5FFF79D
:103A1000CFFF002008BD00BFF0430220014B002271
:103A20001A607047F043022070B588B0FFF702FFBC
:103A300044F6206200231D491D48CDE906230123D9
:103A40000222CDE9033200234FF40062CDE90133B5
:103A50000093184B0DF05EFE17480DF04FFB044627
:103A600050B102698168136823F0800313604FF43A
:103A7000C0620B6807219847012585F0010664B1F3
:103A800023691B6813F0800F18BF35465DB1A3682A
:103A9000DB683546802120469847002142F21070AD
:103AA0000EF002FCE9E7A3681B69F2E7009B032024
:103AB000680A0220B538040890EE0508114B002171
:103AC000114A93ED027AB7EEC77A00B589B08DED51
:103AD000067B93ED037AB7EEC77A8DED047B93ED09
:103AE000017AB7EEC77A8DED027B93ED047AB7EEDB
:103AF000C77A8DED007B12F0E2FE002009B05DF880
:103B000004FB00BF0C44032096EE0508034A002185
:103B100008B512F0D4FE002008BD00BFE3EE050892
:103B2000034B0022C3E99022C3F84822704700BF2C
:103B3000204403200048704738EF050800487047CC
:103B400046EF05080048704767EF050800487047D2
:103B500080EF050800487047A1EF0508004870474E
:103B6000B4EF0508004870479BF905080048704706
:103B7000D5EF050800487047F6EF05080048704784
:103B800006F005080048704727F005080048704710
:103B900040F005080048704761F00508004870478C
:103BA00079F00508004870479AF00508004870470A
:103BB000B0F0050800487047D1F00508004870478C
:103BC000DFF005080048704700F10508004870471D
:103BD0000EF10508004870472FF1050800487047AE
:103BE0004CF10508004870476DF105080048704722
:103BF00087F1050800487047A8F10508004870479C
:103C0000C0F1050800487047E1F105080048704719
:103C1000F1F105080048704712F2050800487047A6
:103C20002BF20508004870474CF205080048704721
:103C30005BF20508004870477CF2050800487047B1
:103C40008DF2050800487047AEF20508004870473D
:103C5000CEF2050800487047EFF2050800487047AB
:103C600009F30508004870472AF305080048704723
:103C700040F305080048704761F3050800487047A5
:103C800073F305080048704794F30508004870472F
:103C9000AFF3050800487047D1F0050800487047A9
:103CA000DFF005080048704712F205080048704729
:103CB0002BF2050800487047E1F1050800487047FD
:103CC000F1F1050800487047D1F005080048704739
:103CD000DFF0050838B500F5D474064D0022002346
:103CE000214604480DF090FD18B1284616F05EFB01
:103CF000F4E738BDF82B022063292DE9F043044690
:103D000085B00E46104603DD94F8385D002D5BD07B
:103D1000036804F663211B6898474FF6FF6384F835
:103D2000616A46F30726A4F85C3AC0F3072384F8D7
:103D3000626A04F661210344254EC21DA4F85E0A9E
:103D4000DB43361B84F8603A00237518AA4203DD72
:103D500011F8015B2B44F8E7594200F10805DBB28A
:103D60002244C9B258BF4B42B5F5007F6FEA030346
:103D700082F85C3A1ADC04F65C28D4F8480816F09D
:103D80006AFA08B32E4604F12409002E1CDD3246DF
:103D90004146484611F031FF0746D4F84808836889
:103DA000DB6903B19847B844F61BEEE7094B4FF0C7
:103DB000FF3501AA07210193032320468DF808301F
:103DC000054B0393FFF798FF284605B0BDE8F08345
:103DD000A4F5FFFFA8C90508D0F305081FB5084BD7
:103DE000044601AA0A2101930023CDE90233FFF71B
:103DF00083FF10F068FCC4F84C0804B010BD00BF8D
:103E000078C9050838B50D46044606220E4968688B
:103E100017F060F940B90D496868FCF713FDB0FA76
:103E200080F0400984F8AA0104F5D474084D0022FA
:103E30000023214606480DF0E7FC18B1284616F08D
:103E4000B5FAF4E738BD00BF09F4050810F4050819
:103E5000F82B022013B50B79074C8DF804300022A3
:103E6000002301A904480DF0CFFC18B1204616F03C
:103E70009DFAF4E702B010BDE830022038B50C46D8
:103E8000064DE16A0022002304480DF0BDFC18B184
:103E9000284616F08BFAF4E738BD00BF7C300220CC
:103EA00038B50B7900F5D474074D80F8A83100229D
:103EB0000023214604480DF0A7FC18B1284616F04F
:103EC00075FAF4E738BD00BFF82B022038B50B793E
:103ED00000F5D474074D80F8A93100220023214653
:103EE00004480DF091FC18B1284616F05FFAF4E78B
:103EF00038BD00BFF82B0220084A0260084A426021
:103F0000002230B5C0E90222002400250261054AE2
:103F1000C0E906454261C0E9084530BD08CA050848
:103F2000D8C9050845000608064A0749026000226C
:103F3000816006494260C261C0E90312C0E90522FE
:103F4000704700BF80CA050868CA05084500060812
:103F50002DE9F047044686B010F0B5FB42F6F82292
:103F6000D4F8403D0646C31A934284BF002384F828
:103F7000383DD4F8243D33B1D4F8443D83423CBFAE
:103F80000023C4F8243DB34FDFF8D882DFF8D8927D
:103F9000D4F8583873B901226946201D11F093FEF8
:103FA000054688B994F8380D002840F0448106B0E1
:103FB000BDE8F08710F087FBD4F85838801B984292
:103FC000E9D96FF00100F2E7D4F8342D9DF8003004
:103FD000D4F8245D1A44072DC4F8342D12D1D4F836
:103FE000302D511C2244C4F8301D82F85C38D4F8BE
:103FF000283D013BC4F8283D002BC9D10823C4F853
:10400000243DC5E79DB9FF2B07D10123C4F8243D0A
:1040100006F11403C4F8443DBAE710F054FB41F232
:104020008833801B9842B3D984F8385DC9E7012DE5
:104030000ED1FE2B01D10223E1E70023C4F8243D79
:1040400094F8383D002BA3D12046FFF7C7FE9FE729
:10405000022D0AD10022C4F8283DC4F8302D0322D5
:10406000C4F8242DC4F8343D92E7032D07D1D4F8C9
:10407000282D02EB0323C4F8283D0423BFE7042DB9
:1040800005D13A40FF2A0CBF05230023B7E7052DD1
:1040900003D10622C4F82C3DE2E7062D0BD1D4F85B
:1040A0002C2D02EB0323C4F82C3D0723C4F8243D38
:1040B000D4F8283DA0E7082D7FF46AAF3A400023EA
:1040C000FF2AC4F8243D7FF463AFD4F82C5D002DA3
:1040D0005AD1204604F54C67FFF780FE5E4B4FF443
:1040E000007800935D4BCDE9043504F65C45CDE9DD
:1040F000023355F8043BC3B19A685868ADF8042000
:104100001A68036802929B68984755F8043C03902C
:1041100058680368DB68984755F8043C6A46196993
:10412000CDE904082046FFF7E7FDBD42E1D104F6E2
:1041300024574FF4007855F8040BC8B14368ADF824
:1041400004308368029303689B689847039055F88E
:10415000040C0368DB689847CDE9040855F8040CA3
:1041600003685B6898476A4601462046FFF7C4FD2E
:10417000BD42E0D101234FF0FF30C4F83C6D84F81C
:10418000383DC4F8406D12E70A2D36D102934FF442
:104190007A7ACDE9008310F096FAD4F84C5804F6F8
:1041A0005C01451B684610F0EBF8019BB5FBFAF08B
:1041B00003440AFB10502A4D0193029B05FB00307B
:1041C000029010F080FA019B04F65401B0FBFAF261
:1041D000013B0AFB12009B1AC4F85038029B4B4467
:1041E00005FB1030C4F8540804F5056000F094FB9A
:1041F00010F069FAC4F8400DCAE6062D09D104F69C
:104200005C0104F64C5010F01AFF012384F8483D7D
:10421000BEE60B2D02D184F8383DB9E605F53375BD
:1042200054F8250000283FF4B3AE036804F65C019F
:104230001B689847ACE6D4F83C3D40F6C412F31A2C
:10424000934204D92046FFF7C9FDC4F83C6D2846C7
:10425000ADE600BFFF00008090C9050845000608D4
:1042600040420F0078C9050800CA9A3B2DE9F04783
:10427000DF4D40F64802DF4B00212846002600278C
:10428000DFF8088440F8043B05F5805416F0DEFDA5
:104290004FF461434FF400723146C5F8443805F6D7
:1042A0005C00C5F84C68C5F85068C5F85468C5F896
:1042B000586816F0CBFD4FF40072314605F65C20CD
:1042C00016F0C4FD6422314605F65C4016F0BEFDD2
:1042D0006422314605F54C6016F0B8FDC64BC5F8B2
:1042E000908D05F6D850C5F84C3D05F55663C5F8D8
:1042F000246D1F60C14BC5F8286DC5F8783DC04BD3
:10430000C5F82C6DC5F87C3DBE4BC5F8306DC5F8C1
:10431000803D05F69453C5F8346D1F6005F698533B
:1043200085F8386D1F6005F69C53C5F83C6D1F601D
:1043300005F55A63C5F8406D1F6005F6A453C5F82E
:10434000446D1F6005F6A85385F8486DC5F8506D9B
:10435000C5F8546DC5F8586DC5F85C6DC5F8646D49
:10436000C5F8686DC5F86C6DC5F8706DC5F8846DDD
:10437000C5F8886DC5F88C6D1F6005F6AC53C5F89F
:10438000CC8D1F6005F6B853C5F8D08D1F6005F6BB
:10439000C453C5F8B06D1F60C5F8B46DC5F8BC6DE9
:1043A000C5F8C06DC5F8C86DC5F8D46DFFF7A4FD9C
:1043B00005F60860C5F8006E85F8046EFFF79CFDF1
:1043C00005F56360FFF798FD05F65860FFF794FD6B
:1043D0008D4BDFF8BC9205F69C60C5F8803E05F673
:1043E0007853C5F8989EC5F8843EC5F8906EFFF7DF
:1043F0009BFD864B05F6CC60C5F8BC6EC5F8C83E83
:1044000085F8C06EC5F8C46EFFF78EFD804BDFF8EF
:1044100084A205F61870C5F8003FC5F8083F7D4B2B
:10442000C5F8EC6EC5F8103F85F8F06EC5F8F46E6F
:10443000C5F8F8AE85F8FC6E85F8046F85F80C6F4A
:10444000FFF75AFD05F57460FFF756FD05F6687035
:10445000FFF752FD05F57960FFF74EFD05F6B870E0
:10446000FFF74AFD05F57E60FFF746FD6A48FFF756
:1044700043FD6A4A6A4B04F5CE70E26505F6C862F0
:1044800023632266674A684B226705F6F862A363D6
:104490006267664A664BC4F8842005F57062A364BF
:1044A00005F69863C4F88820624A6349C4F89820E6
:1044B00005F57162E7630127C4F89C205F4AE36455
:1044C000C4F8AC2005F6087284F83460C4F8B02053
:1044D0005B4A2664C4F8C02003F5CC72A665C4F814
:1044E000C420584AE666C4F8D42003F5D072C4F854
:1044F0008060C4F8D820544AC4F89460C4F8E82016
:10450000C4F8A860C4F8BC60C4F8D060C4F8E46023
:10451000C4F8F4A084F8F860C4E93F164B49C4F825
:104520000431C4F8F0104A49C4F80C21C4F85421ED
:10453000484AC4F80871C4F818A184F81C61C4F88A
:1045400060A184F86461C4F88861C4E948164249EE
:10455000C4E94A37C4E95337C4E95C37C4F81411D5
:104560003E4B3F49C4F85C31C4F830113D4B3E49E5
:10457000C4F8783104F5EC73C4E94F183B494FF0A7
:104580000008C4F87C313A4BC4E951163949C4F8E3
:104590008C31C4F83811C4E95A26C4F89891FFF751
:1045A000C3FC354B04F5EE70C4F8BC614FF0000954
:1045B00084F8C061C4F8C461C4E9723604F5BC7300
:1045C000C4E974372D4BC4F894312D4BC4F8D8315D
:1045D000FFF7AAFC2B4B05F59152C4F8FC61C4F817
:1045E000103204F53D70284BA4F8006254E000BF7F
:1045F000600B0220F4CB0508C0C9050820CA0508D5
:10460000F0C90508D8C905081FF4050898CA0508A7
:1046100050CA050810CB0508681B022043F40508A2
:10462000E0CA050856F40508F8CA050873F4050839
:1046300033F405088FF40508A13E0408A7F4050823
:10464000C1F40508E6F4050828CB05080DF50508B2
:10465000CD3E0408D53C04082DF5050858F505089D
:1046600040CB050880F50508B0CA0508053E0408DA
:1046700070CB050848F505087D3E040897F5050848
:1046800058CB0508A0CB050888CB050845000608CF
:10469000C8CA050838CA0508C4F81832C4F8383240
:1046A000C4F85832C4F8783205F59453C4F804625B
:1046B000C4F8A862C4F8B0A284F8B462C4F8C862AE
:1046C000C4F8D8A284F8DC62C2E90089C2E9028990
:1046D000C2E9048905F59252C3E90089C2E900895B
:1046E000C2E90289C2E90489C3E9028905F5935246
:1046F000C3E90489264BC4F89832A2F15003C4F8E8
:104700009C32244BC2E90089C2E90289C2E90489CA
:10471000C4F8B83202F150031F4AC4F8BC32C4F8DE
:10472000CC221E4AC4E9B826C4E9BA371C4B1D4F37
:10473000C4F8D432C4F8F072FFF7F6FB05F59953CC
:1047400004F55570C4F81463C4F8206305F59C554E
:10475000C4F84863C4F8507343E90289124BC4F8A3
:10476000383304F53C73C4F83C33FFF7DDFB0F4BE3
:10477000C4F87463C4F8B03304F55473C4F88063A8
:10478000C4F8B433C4F8C06345E90289BDE8F087D2
:10479000AAF50508BAF50508B8CB0508553E040882
:1047A000E5F50508D0CB050804F6050819F6050857
:1047B0002DE9F04108202A4C002560602560C4E9FD
:1047C0000255C4E90455C4E90655C4E9085510F07A
:1047D000C6FE666807462060013E760800EB860844
:1047E0004FF4007016F034FA00F5007347F8260015
:1047F000E060A060A0612361C4F81480C4F8248044
:10480000C4E9070304F1280010F0B4FE04F15000DD
:1048100010F0B0FE04F1780010F0ACFE0023294641
:104820004FF4807204F1B400C4F8A830C4F8AC307E
:10483000C4F8B03084F8A050C4F8A45016F006FBB9
:104840002946C02204F5DC7084F8B45116F0FEFA53
:104850002046044A0449BDE8F04112F0D2BE00BF30
:104860009C4603203476032003560508064A1E237F
:104870000021013B82F8601302F58072F9D1034AEE
:1048800082F86C39704700BF144903201469032073
:104890001FB504460020FEF711FA03900120FEF731
:1048A0000DFA039B009000212046034A12F007F8FE
:1048B000002004B010BD00BF25FA05081FB50B4B42
:1048C0000021D3F818240392D3F810230292D3F8CE
:1048D00008220192D3F804210092054AD3F800314E
:1048E00011F0EDFF002005B05DF804FB281F022049
:1048F00055FA050838B50024064D281904F58474C6
:104900004FF48472002116F0A1FAB4F5846FF4D14B
:1049100038BD00BF281F02200B68026830B5044D67
:10492000B3FBF5F4224405FB143302600B6030BD89
:1049300000CA9A3B0B6801330B60014B1B68184798
:10494000B0000220014B1860704700BFB000022089
:1049500007B50B46002102460348019101A9FBF768
:1049600083FF03B05DF804FB3549040830B585B01A
:10497000002504460395CDE9010101A90448FBF790
:1049800073FFDDE902309842B8BF255405B030BD51
:104990004B560508F0B502460168084E00200A276C
:1049A0000C46013123789D5D6D0701D41460F0BD84
:1049B00007FB0033A3F13000F2E700BF65330608C0
:1049C0002DE9F84F15469A46D3788046214A0F467E
:1049D0006F2B13F802B00BF0030B29D024D8582BFF
:1049E00014BF0A261026DDF82890324600234046E0
:1049F0003946FBF7A5FD092AD4B21ED83034B0459C
:104A0000E4B277F1000309F8014D01D3D14511D883
:104A10002B789B0605D5082E15D1AB7843F00803FB
:104A2000AB704846BDE8F88F03F0F703702BD7E76B
:104A30000826D8E780460F46D7E7BBF1010F0CBF29
:104A400037345734DBE7102EEBD1AB7843F010034B
:104A5000E6E700BF6533060807B501904FF0100286
:104A6000EFF3118382F31288BFF36F8F14F042F8D3
:104A7000019803F0E1FF034810F0F9FD03F058FA44
:104A8000FCE700BFA3FA05080B0706D5034BC35C80
:104A900003F00303012B08BF20307047653306087D
:104AA0002C4A136843F40073F0B513604FF0100301
:104AB000EFF3118083F31288BFF36F8F264B5A698F
:104AC00012F4003211D1BFF34F8FBFF36F8FC3F8D1
:104AD0005022BFF34F8FBFF36F8F5A6942F40032F9
:104AE0005A61BFF34F8FBFF36F8F1B4A5369DB03CC
:104AF00027D4536913F4803323D1C2F88430BFF331
:104B00004F8FD2F8803043F6E075C3F3C904C3F386
:104B10004E335B0103EA0507214647EA81760139F6
:104B2000C2F86062F9D2203B13F1200FF2D1BFF33B
:104B30004F8F536943F480335361BFF34F8FBFF3FB
:104B40006F8F80F31188BFF36F8F044B0020044AEE
:104B50001A60F0BD003C024000ED00E08405022038
:104B60000024F40030B5002289B00F490F4815F039
:104B700015FE0022002300240D4D0E492846009406
:104B8000CDE906230E234FF44072CDE90334CDE97D
:104B90000144094B0CF0BEFD084928460CF00AFD03
:104BA000204609B030BD00BFC14B04084823022095
:104BB0008023022080A30320954F040895FE05085A
:104BC00001480CF08FBF00BF4C0A0220F0B505462B
:104BD0000020104E01270346024615F8014B0CB188
:104BE0008B4200D3F0BD252C02D182F00102F4E704
:104BF000002AF2D014F806C01CF0030FEDD0732C7D
:104C000008BF07FA03F203F1010308BF10430022B3
:104C1000E3E700BF6533060808B50D4A00234FF4EB
:104C20007A7013700B4A13600B4B0C4A1A6000F039
:104C30009BFD00F039FB0A4811F0ACF91023482223
:104C40000849094815F01AFBBDE8084000F064BAAD
:104C5000178F032088720320B4000220D35F050859
:104C6000907203204042042098720320124B70B5CA
:104C7000BFF35B8F53E8005F6A1C43E80021002903
:104C8000F8D1BFF35B8F2DB90C4C0D4E361B36118E
:104C9000B54200DB70BD237B53B123689B690BB128
:104CA00020469847636804222046196800F0CCFA31
:104CB00001351034ECE700BF8C72032034C10508C5
:104CC00054C1050810B54FF01003EFF3118483F3BE
:104CD0001288BFF36F8F044811F06CF984F31188C8
:104CE000BFF36F8F10BD00BF9072032010B5044C4E
:104CF000237813B903480CF0F5FE0123237010BD8F
:104D0000168F03204C0A02200C4BBFF35B8F53E835
:104D1000002F013243E800210029F8D1BFF35B8F57
:104D200058B1074BBFF35B8F53E8002F013A43E8BC
:104D300000210029F8D1BFF35B8F704788720320F0
:104D4000847203200020064BBFF35B8F024653E8BA
:104D5000000F43E800210029F9D1BFF35B8F7047B2
:104D600088720320F8B50B4CFFF7ECFF0A4D07469D
:104D700000262D1B2D11AE4200DBF8BD63685B7968
:104D80002BB123681B6913B1394620469847013679
:104D90001034F0E734C1050854C10508174B984298
:104DA00073B5044602D3164B984221D30022002348
:104DB00001A914480CF098FB0546E0B90122019BBB
:104DC000BFF35B8F53E8001F43E800200028F9D1B0
:104DD000BFF35B8F3F22019E2146331D184616F01C
:104DE0008DF97E22034686F8445086F843201C46FF
:104DF000204602B070BD044BF9E700BF7CB6050841
:104E00001836060898720320CCFA050850B1064BF4
:104E1000984206D303F5906398422CBF00200120EE
:104E200070470020704700BF404204204C4B1B7865
:104E30002DE9F74F054603B9A0B1FFF743FF04463C
:104E400018B19DB1204611F0C1F92DB9454B1B6831
:104E5000002B01DDFFF786FF434811F0A9F8051E7E
:104E600018BF0125284603B0BDE8F08F3F4BBFF3C4
:104E70005B8F53E8002F013A43E800210029F8D165
:104E80003B4BBFF35B8F1B78BBB9237ADA0714D493
:104E900011F0AFF980462046DFF8F09011F074F978
:104EA00001464046DFF8E8B0FFF790FE314B06467A
:104EB000A9EB03034FEA930A36B92F4E00272F4B75
:104EC0009B1B4FEA231848E0B6FA86F72046C7F145
:104ED0001F07394611F05BF9294B0246984202D36D
:104EE000284B98421BD31046FFF790FFB8B9264BCA
:104EF0009A4214D06189C1F3891100F02BF9D9F8D5
:104F0000003002465B070AD04FEA8A1339465846FA
:104F100043F00103ADF80030434611F0A3F801233C
:104F200003FA07F726EA0706C6E773685B7993B1C9
:104F3000A17A01236289304601F00709C1F3C20159
:104F4000C2F3891200F096F9814504D833682146EE
:104F500030465B689847013710364745E5DB71E717
:104F6000168F03208872032090720320847203201E
:104F7000178F0320C808022034C1050854C1050852
:104F80007CB6050818360608CCFA05081009022078
:104F9000E6FA050810B5FFF769FE0DF09DF90C4B18
:104FA000186030B10B4B1B68092B02DD0A480CF06E
:104FB00099FD094C0020FFF739FF0028FAD14FF086
:104FC000FF324FF0FF3320460CF0B2FDF2E700BF96
:104FD000B8720320847203204C0A0220284B37B594
:104FE00004461B6841819847E0604FF01003EFF3DF
:104FF000118583F31288BFF36F8F2248214610F08A
:10500000CDFF85F31188BFF36F8F1F4BBFF35B8F0D
:1050100053E8002F511C43E800100028F8D11B4B27
:10502000BFF35B8F1B7883B14FF01003EFF3118454
:1050300083F31288BFF36F8F0020FFF7F7FE84F32E
:105040001188BFF36F8F03B030BD114B1B68002B6D
:10505000F9D052B9002200230E48CDE9002342F2D4
:10506000107200230DF066FBEDE70A2AEBD1094828
:1050700015F0A0FB084803B0BDE830400CF032BD8D
:10508000B40002209072032084720320178F032043
:10509000B8720320482302204C0A0220F8B50E4FB4
:1050A0003D7875B90D4CFFF7E1FD0D4E361B3611FD
:1050B000B54207DB0020FFF7B9FE0028FAD1012333
:1050C0003B70F8BD63685B791BB1236820465B6960
:1050D000984701351034EBE7178F032034C10508DA
:1050E00054C1050807B504380190BFF35B8F50E841
:1050F000003F5A1E40E800210029F8D1012BBFF3E0
:105100005B8F03D101A9034815F0D4F803B05DF813
:1051100004FB00BF987203200B4800210B4B1B1AA5
:10512000043030B5DB080A4C994200D130BD10F88C
:1051300031200131256802F0070225F007052A43D6
:1051400044F8042BF0E700BF24C0050834C105086B
:10515000C8080220044A054B9B1AB1EBD30F34BF99
:1051600052F831000020704724C0050834C10508FA
:105170002DE9F0478A4616469846C8B9DFF894905C
:105180000446214F0546A7EB09073F11BC4202DB4D
:105190002846BDE8F08709EB0410434632465146E5
:1051A000FFF7E6FF854204F1010438BF0546EDE74D
:1051B000164B174C03EBC2031D79436845451A791A
:1051C0004FF0070328BF454602EB420203FA02F103
:1051D00054F8263023EA010305F0070101FA02F230
:1051E00000211343032223FA02F0033200F00700E8
:1051F000814238BF01461E2AF5D123F007030B4335
:1052000044F82630C4E700BF54C1050824C005088F
:10521000C808022034C10508F8B5094C0646094BF8
:105220000F460025E41AE408A54200D1F8BD00218C
:105230002AB23B4630460135FFF79AFFF4E700BF3C
:1052400034C1050824C00508094BC31A1B1170B5E9
:105250000133466804460D4633711146FFF7DCFF03
:10526000636801221D605A71BDE87040FFF73EBDC2
:1052700034C1050863B1002A0FDB43680849187977
:1052800000EB400351F82200D84000F007007047BF
:10529000044B03EBC202107970470420704700BF33
:1052A000C808022024C005082023024902481A46E3
:1052B00014F0E4BFC0460420BC72032037B50023BD
:1052C0000A4D01930120FFF7B1FD04460120FFF7CD
:1052D0001BFD0022002301A928460CF005F908B1A6
:1052E000002CEFD1019803B030BD00BFBC72032089
:1052F000002307B50022019301A9002305480CF003
:10530000F3F810B1FFF7DAFF0190019803B05DF8F0
:1053100004FB00BFBC720320037AF0B5DC0785B044
:1053200001901ED4457A2D091BD000242646314613
:10533000019810F02CFF0746FFF768FD70B134B9F3
:10534000019B29461869FFF741FC044648B124FA3D
:1053500006F3D90702D53846FFF7C4FE0136AE4240
:10536000E5D3019B1A7A920704D55B69084C039335
:10537000039B2BB901A9064814F09CFF05B0F0BDB2
:105380001D6803A9204614F095FF0395F0E700BFC0
:10539000BC720320024BD868DB69C01A704700BF9B
:1053A000BC720320014BD869704700BFBC72032058
:1053B0000EB403B503AB0146054853F8042B019323
:1053C000FBF752FA02B05DF804EB03B0704700BF80
:1053D000A96505082DE9F0471D46089B17460446B8
:1053E000DA060E4605D499064CBF2B492B49FFF728
:1053F000DFFF4FF00008DFF8AC90A8452DDB00255B
:10540000DFF8A480DFF8A490DFF898A0BD4232D284
:10541000725D49462046FFF7CBFF0135102D23D1A1
:105420000025DFF88080DFF888902046DFF884A030
:105430001B49FFF7BDFFAF4229D9725D5146204697
:1054400012F8093013F0970F08BF2E22FFF7B0FFB4
:105450000135102D14D1BDE8F0874946204608F1EA
:105460000108FFF7A5FFC8E76A07CFD151462046DC
:10547000FFF79EFFCAE741462046FFF799FFCCE7BA
:105480006B07D8D141462046FFF792FFD3E741464C
:105490002046FFF78DFFDBE74400060841FC0508C6
:1054A000DE270608DC2F0608DA2F060826FB05088B
:1054B00065330608960606082DE9F04F11F002063E
:1054C00087B0074601F0010A9DF8408001F0080509
:1054D000BDF94890059207D011F0440F39D11A4612
:1054E0003349FFF765FF0646BAF1000F0AD0314B8A
:1054F0003846314953F82820304B002A08BF1A4655
:10550000FFF756FF3DB12E4B38462E4953F8282061
:10551000FFF74EFF0546B9F1000F16DB059B002B88
:1055200043D00123284C03FA08F8284B18F0100F39
:1055300018BF1C4649469DF84400FFF70BFE214664
:1055400002463846FFF734FF0544A81907B0BDE806
:10555000F08F1F4A116831B31E4A4FF461664FF451
:105560007A7B4FF03C0C1468B3FBF4F3B3FBF1F41B
:10557000B4FBF6F206FB124601FB14340BFB04F4F9
:10558000B4FBF1FE01FB1E44B6FBFCF30BFB04F481
:105590000CFB1366B4FBF1F10096CDE901E10E4975
:1055A000FFF706FF9FE708469DE7074CC2E700BFED
:1055B0003AFB050888CC05088B0106082CFB05087A
:1055C0009CCC05085FFB050831FB050836FB050888
:1055D000DC720320E072032043FB050838B50C465B
:1055E0000546E10703D5084A0849FFF7E1FEE20650
:1055F00008D4A30628464CBF05490649BDE83840F3
:10560000FFF7D6BE38BD00BF2CFB05088B0106088E
:105610004400060841FC05088B7A2DE9F04713F099
:1056200007088AB005460E46174622D00A7AC3F309
:10563000C2034989D243C1F3891102F001020291E8
:105640003946CDE90083F368FFF736FF8146347AA7
:10565000E44314F001040ED02946304610F03AFE1F
:10566000B8F1000F2BD0424639462846FFF7B6FF67
:1056700025E0C146EBE7B8F1000F26D12746EB68DD
:1056800006AAA968304606933B4610F00FFE069A1C
:105690006B681A603AB1AB68134413F8014CA4F17B
:1056A0000A035C425C41284610F071FF069B1F44D0
:1056B000002BE4D11CB114492846FFF779FE284697
:1056C0000AB0BDE8F04710F062BF30464FF0100A54
:1056D00010F08FFD0D4902462846FFF769FE05AA26
:1056E000234606A93046CDF814A010F0DFFD059A38
:1056F000002AB8D04B4606A928460097FFF76AFE55
:10570000059B1C44EBE700BF65FB05088B01060801
:1057100042F20F73114A8B4273B5044628BF0B4601
:105720000568052168460FF0AFFF6368064604224E
:1057300028465B680A4910F0C0FD63683246694636
:1057400028465B6810F0B9FD6368172205495B685D
:10575000284610F0B2FD02B070BD00BF2227060837
:105760009FFB050887FB050810B5084A01230021A7
:10577000074C1360A04204D801B11360054B1860B8
:1057800010BD400801215B00F4E700BFE072032078
:1057900040420F00DC72032000230428054ACB603E
:1057A0004B6098BF044B8A6098BF53F820300B6061
:1057B000704700BFCCCC0508F0CC05080023084A90
:1057C0000B60CB604B608A60064B074AD21AB0EB85
:1057D000221F3EBF03EB00139B680B60704700BFA6
:1057E00044CE050834C1050854C1050838B504463F
:1057F000FFF7D0FD0546FFF7D5FD094A0346002116
:10580000204611F05CF82B462046064A002111F094
:1058100056F82046044A002111F051F8002038BD06
:10582000A4FB0508B5FB0508C6FB05082DE9F347F1
:10583000114B8246114C0025114F1B1BDFF8448091
:10584000DFF844901E11B54203DB002002B0BDE832
:10585000F087636850460135103459791B79002967
:1058600014BF3A4642460021CDE9002354F8083CD3
:105870004A4611F024F8E6E754C1050834C105088A
:1058800012FC05081AFC050823FC05082DE9F04F59
:10589000244B85B0244C05460E46E41A4B685B79D0
:1058A000E4081BB9214A042111F009F8204B00211A
:1058B000204A28464FF00008DFF880A0DFF880B0CB
:1058C00010F0FDFF1C4A0021284610F0F8FF0FFAE7
:1058D00088F708F10108A74203D3002005B0BDE80E
:1058E000F08F3A46012300213046FFF7C3FC002326
:1058F0003A46814619463046FFF7BCFC39460390CC
:105900000020FFF727FC039A034600215AF82220C3
:10591000284601925AF8292000925A4610F0CFFFEB
:10592000D5E700BF24C0050834C1050844FC0508BC
:1059300056FC050862FC050880FC0508DCCC05085F
:10594000BDFC05080023064A10B50C46CB604B6031
:105950008A6001461846FFF7FDFB206010BD00BFBE
:10596000CCCC05082DE9F04F85B006468946904617
:105970000193002752F8043C164C18460293FAF79C
:105980006BFF15490246A346091B029B4FEA211AE9
:10599000574507DB114A022130466FF0070510F02A
:1059A0008EFF11E0A168184603921034029315F09F
:1059B00091FB0546DDE9023250B943464A460BEBFE
:1059C00007113046019CA047284605B0BDE8F08F7E
:1059D0000137DDE734C1050854C10508D1FC0508CD
:1059E00008B5024BFFF7BEFF002008BD8D58040824
:1059F000014BFFF7B7BF00BFDF650508014BFFF79D
:105A0000B1BF00BFE7650508014BFFF7ABBF00BFA3
:105A1000155B0408014BFFF7A5BF00BF39660508F9
:105A2000C369DB6810B51C792CB9044A022110F057
:105A300046FF204610BD0120FCE700BFE6FC05083C
:105A40002DE9F04F1F462D4E2D4B151E85B080467B
:105A5000A6EB030618BF2B4689464FEAD60608BFB9
:105A6000334602934B685B791BB9264A042110F038
:105A700026FF0024DFF898A0029B9C4202DB05B0C1
:105A8000BDE8F08FBDB357F824B000239E4207D184
:105A900057F8243002211C4A404610F010FF23E042
:105AA000194600200393FFF755FB4022594615F095
:105AB00011FB039BD0B91A4600210E9B12B2484637
:105AC000FFF756FB0E9B834683420DD085B92146D6
